:100000000C9463000C948B000C948B000C940006F1
:100010000C9400060C9400060C948B000C948B003E
:100020000C948B000C948B000C948B000C948B0024
:100030000C948B000C948B000C948B000C948B0014
:100040000C949B040C948B000C9469040C94430452
:100050000C948B000C948B000C948B000C948B00F4
:100060000C94E5040C948B00000000002400270091
:100070002A0000000008000201000003040700003D
:1000800000000000000000000000230026002900FE
:1000900000000000250028002B00040404040404D0
:1000A0000404020202020202030303030303010227
:1000B00004081020408001020408102001020408F6
:1000C00010207806390911241FBECFEFD8E0DEBF1B
:1000D000CDBF11E0A0E0B1E0E4E1F3E102C00590A2
:1000E0000D92AC36B107D9F722E0ACE6B1E001C021
:1000F0001D92A13FB207E1F710E0C2E6D0E004C0D4
:100100002197FE010E947709C136D107C9F70E94E5
:1001100023070C947D090C940000AF92BF92CF92FC
:10012000DF92EF92FF920F931F93CF93DF936C01B7
:100130007B018B01040F151FEB015E01AE18BF0898
:10014000C017D10759F06991D601ED91FC9101904A
:10015000F081E02DC6010995892B79F7C501DF9162
:10016000CF911F910F91FF90EF90DF90CF90BF90B4
:10017000AF900895FC01538D448D252F30E0842FDE
:1001800090E0821B930B541710F0CF9608950197BF
:100190000895FC01918D828D981761F0A28DAE0FAC
:1001A000BF2FB11D5D968C91928D9F5F9F73928F33
:1001B00090E008958FEF9FEF0895FC01918D828D5F
:1001C000981731F0828DE80FF11D858D90E008952C
:1001D0008FEF9FEF0895FC01918D228D892F90E084
:1001E000805C9F4F821B91098F739927089585E347
:1001F00092E00E94EB0021E0892B09F420E0822F9D
:10020000089580E090E0892B29F00E94F700811189
:100210000C9400000895FC01A48DA80FB92FB11D06
:10022000A35ABF4F2C91848D90E001968F7399272C
:10023000848FA689B7892C93A089B1898C9183700A
:1002400080648C93938D848D981306C00288F38903
:10025000E02D80818F7D80830895EF92FF920F9330
:100260001F93CF93DF93EC0181E0888F9B8D8C8D62
:1002700098131AC0E889F989808185FF15C09FB756
:10028000F894EE89FF896083E889F9898081837019
:10029000806480839FBF81E090E0DF91CF911F91C8
:1002A0000F91FF90EF900895F62E0B8D10E00F5FE9
:1002B0001F4F0F731127E02E8C8D8E110CC00FB6BF
:1002C00007FCFACFE889F989808185FFF5CFCE0157
:1002D0000E940B01F1CFEB8DEC0FFD2FF11DE35AC6
:1002E000FF4FF0829FB7F8940B8FEA89FB898081DA
:1002F0008062CFCFCF93DF93EC01888D8823B9F054
:10030000AA89BB89E889F9898C9185FD03C0808120
:1003100086FD0DC00FB607FCF7CF8C9185FFF2CF9D
:10032000808185FFEDCFCE010E940B01E9CFDF91E7
:10033000CF91089590E0FC01EE58FF4F2491FC010D
:10034000E255FF4F3491FC01E656FF4FE491EE2356
:10035000C9F0222339F0233001F1A8F4213019F13A
:10036000223029F1F0E0EE0FFF1FE057FF4FA5917B
:10037000B4918FB7F894EC91611126C030953E236B
:100380003C938FBF08952730A9F02830C9F024305E
:1003900049F7809180008F7D03C0809180008F7726
:1003A00080938000DFCF84B58F7784BDDBCF84B5A9
:1003B0008F7DFBCF8091B0008F778093B000D2CF3C
:1003C0008091B0008F7DF9CF3E2BDACFCF93DF93B2
:1003D00090E0FC01E255FF4F249186569F4FFC01AF
:1003E00084918823D1F090E0880F991FFC01E8598F
:1003F000FF4FA591B491FC01E057FF4FC591D491F7
:1004000061110EC09FB7F8948C91E22FE0958E2376
:100410008C932881E223E8839FBFDF91CF910895D9
:100420008FB7F894EC91E22BEC938FBFF6CF3FB7E8
:10043000F8948091220290912302A0912402B0911D
:10044000250226B5A89B05C02F3F19F00196A11DD6
:10045000B11D3FBFBA2FA92F982F8827BC01CD010E
:10046000620F711D811D911D42E0660F771F881F6D
:10047000991F4A95D1F708958F929F92AF92BF929C
:10048000CF92DF92EF92FF924B015C010E94170224
:100490006B017C010E9417026C197D098E099F096E
:1004A000683E734081059105A8F321E0821A910806
:1004B000A108B10888EEC80E83E0D81EE11CF11C2B
:1004C00081149104A104B10429F7FF90EF90DF900B
:1004D000CF90BF90AF909F908F9008952091D301BF
:1004E000260F3327331F21323105ECF42091F70119
:1004F000FC0190E080E0243069F082E00895A09152
:10050000D3012191AC014D545E4FA40FB52FB11D05
:100510002C930196861798F38091D301680F60930E
:10052000D30180E0089581E0089508958FEF9FEF53
:1005300008958FEF9FEF08958091AC0190E0919521
:10054000819591090895CF93DF93CB01EA01642F40
:100550000E946E02CE01DF91CF910895CF93DF9379
:100560001F92CDB7DEB7698361E0CE0101960E948C
:100570006E0281E090E00F90DF91CF91089520917D
:100580002802309129022817390771F49091260228
:1005900080912702981741F0E0912602F0E0E4599B
:1005A000FE4F808190E008958FEF9FEF0895EF92C6
:1005B000FF920F931F93CF93DF93DC015C96ED9036
:1005C000FC905D97E114F10479F481E090E01396DA
:1005D0009C938E93129790E080E0DF91CF911F91D2
:1005E0000F91FF90EF9008955196ED91FC915297E5
:1005F00050968C915097982F90950FB75E962C91AE
:100600005E97122F127021FD6095F89420811123BE
:1006100019F1282B2083E7012197F1F728E0462FD5
:1006200050E0308160FF1AC0382B3083E7012197FA
:10063000F1F7BA0175956795215089F7112381F07B
:100640008081892380830FBF5C968D919C91019757
:10065000F1F781E090E0C1CF2923DCCF3923E5CF4A
:100660009081892BEFCF2091280230912902281701
:10067000390761F4809127022091260290E0805C86
:100680009F4F821B91098F739927089590E080E016
:100690000895209128023091290228173907B9F4CA
:1006A0009091260280912702981789F0E091260206
:1006B000F0E0E459FE4F80812091260230E02F5F68
:1006C0003F4F2F7333272093260290E008958FEF3A
:1006D0009FEF089590E080E00895FC0101900020D4
:1006E000E9F73197AF01481B590BBC0185E392E054
:1006F0000C948D008F929F92AF92BF920F931F9395
:10070000CF93DF93CDB7DEB7A1970FB6F894DEBFD6
:100710000FBECDBF19A2423008F44AE08E010F5D32
:100720001F4F842E912CB12CA12CA50194010E9465
:100730005509E62FB901CA01EA30F4F4E05DD801A9
:10074000EE938D01232B242B252B79F790E080E06D
:10075000109719F0CD010E946D03A1960FB6F89481
:10076000DEBF0FBECDBFDF91CF911F910F91BF9024
:10077000AF909F908F900895E95CE1CFCF93DF9386
:100780008CE391E00E946D03EC0183E491E00E9410
:100790006D038C0F9D1FDF91CF9108951F93CF9311
:1007A000DF9385ED8093BC008091AF019091B00103
:1007B000A091B101B091B2010796A11DB11D23E036
:1007C000B695A795979587952A95D1F72091BC0066
:1007D00024FD03C01092F70152C04091AF01509127
:1007E000B0016091B1017091B201452B462B472BAE
:1007F00069F30097A105B10541F02AE22A95F1F7C6
:1008000000C00197A109B109E1CF8091AE01C1E01B
:10081000C093AD01882399F1D091B8001091BA002E
:100820008091BC008A7B8093BC0060E082E10E94E2
:100830009A0160E083E10E949A011092F701C0934F
:10084000F9011092F80161E082E10E949A0161E0F1
:1008500083E10E949A018091B9008E7F8093B90054
:100860008091B9008D7F8093B90088E48093B800AF
:1008700085E48093BC001093BA00D093B800DF9158
:10088000CF911F9108951F920F920FB60F921124CE
:100890002F933F934F935F936F937F938F939F9388
:1008A000AF93BF93EF93FF9385E392E00E940B0118
:1008B000FF91EF91BF91AF919F918F917F916F9138
:1008C0005F914F913F912F910F900FBE0F901F900E
:1008D00018951F920F920FB60F9211242F938F939A
:1008E0009F93EF93FF93E0914502F0914602808140
:1008F000E0914B02F0914C0282FD1BC090818091EF
:100900004E028F5F8F7320914F02821741F0E0916A
:100910004E02F0E0EB5CFD4F958F80934E02FF910D
:10092000EF919F918F912F910F900FBE0F901F907D
:1009300018958081F4CF1F920F920FB60F92112459
:100940002F933F938F939F93AF93BF9380911E02FA
:1009500090911F02A0912002B091210230911D02BE
:1009600023E0230F2D3758F50196A11DB11D2093CB
:100970001D0280931E0290931F02A0932002B09349
:1009800021028091220290912302A0912402B09131
:1009900025020196A11DB11D80932202909323028E
:1009A000A0932402B0932502BF91AF919F918F91A4
:1009B0003F912F910F900FBE0F901F90189526E832
:1009C000230F0296A11DB11DD2CF1F920F920FB619
:1009D0000F9211242F933F934F935F936F937F93C5
:1009E0008F939F93AF93BF93EF93FF938091B90041
:1009F000887F803609F44AC0F0F5883209F4A5C032
:100A000018F5803109F499C0B8F4882309F4F5C0C9
:100A1000883009F492C0FF91EF91BF91AF919F91FF
:100A20008F917F916F915F914F913F912F910F9097
:100A30000FBE0F901F901895883109F486C0803240
:100A400051F78093F60114C0803409F49BC040F440
:100A50008033B9F38833F9F68093F60185ECAEC0A4
:100A6000803509F483C0883509F494C0883499F638
:100A70000E94CE03D0CF883909F48AC038F5883770
:100A800029F050F4883611F0803729F683E08093FE
:100A9000F7011092F50155C0883809F479C0803902
:100AA00019F0803809F0B7CF8091F501803208F055
:100AB0006FC0E091F50181E08E0F8093F501809188
:100AC000BB00F0E0EB52FE4F80833BC0803B39F02F
:100AD000D0F4803A09F477C0883A09F09CCF84E0DA
:100AE0008093F7011092D4011092D301F0E0E0E07E
:100AF00009958091D30181110FC081E08093D301CA
:100B00001092B30109C0803C09F4A8CF883C09F4D5
:100B1000A5CF883B09F07FCFE091D40181E08E0F13
:100B20008093D401F0E0ED54FE4F80818093BB00B0
:100B30009091D4018091D30129C080911C028093AF
:100B4000BB0085EC8093BC0066CF90911B02809126
:100B50001A02981758F5E0911B0281E08E0F8093DE
:100B60001B02F0E0E650FE4F8081E9CFE0911B02CE
:100B700081E08E0F80931B028091BB00F0E0E65075
:100B8000FE4F808390911B0280911A029817C8F241
:100B900085E8D8CFE0911B0281E08E0F80931B0285
:100BA0008091BB00F0E0E650FE4F80838091F90118
:100BB00081115ECF81E08093F80184EA8093BC00CC
:100BC0001092F70128CF85EC8093BC001092F701BA
:100BD0008091F501803230F4E091F501F0E0EB52C4
:100BE000FE4F10826091F50170E085ED91E0F0E03C
:100BF000E0E009951092F5010ECF1092F60138CF82
:100C00001F920F920FB60F9211242F933F934F9381
:100C10005F936F937F938F939F93AF93BF93EF9364
:100C2000FF93E0912802F0912902309749F0A685C0
:100C3000B7858585968D91FF14C09C918923A1F479
:100C4000FF91EF91BF91AF919F918F917F916F91A4
:100C50005F914F913F912F910F900FBE0F901F907A
:100C600018959C91892361F7A389B4899C91858902
:100C7000809589238C93868997890197F1F7608DF8
:100C8000718DA685B785558538E020E0CB010197A9
:100C9000F1F7822F90E095958795282F4C91452369
:100CA00009F02068315091F7868D81FD2095809163
:100CB000270290E001968F7399273091260238170A
:100CC00099F0A0912702B0E0A459BE4F2C938093D5
:100CD0002702828D938D0197F1F7A389B4898C91B6
:100CE0009589892B8C93ACCF868D8160868FF1CFCF
:100CF000109238021092370288EE93E0A0E0B0E044
:100D00008093390290933A02A0933B02B0933C0245
:100D10002CE131E0309336022093350225EC30E0AF
:100D2000309342022093410224EC30E0309344029D
:100D30002093430220EC30E030934602209345029A
:100D400021EC30E0309348022093470222EC30E05F
:100D500030934A022093490226EC30E030934C0253
:100D600020934B0210924E0210924F0210925002AA
:100D7000109251021092D5021092D4028093D602A2
:100D80009093D702A093D802B093D9028EE291E05B
:100D90009093D3028093D2021092E9021092E8025B
:100DA0001092EB021092EA021092ED021092EC0205
:100DB0001092EF021092EE026091F0026E7F6D7F52
:100DC0006093F0026695617081E0682783E00E947D
:100DD0009A0161E083E00E94E601E1EBF0E0E4913A
:100DE000E093E202EDE9F0E0E491F0E0EE0FFF1FA6
:100DF000E057FF4F859194919093E4028093E30232
:100E000060E082E00E94E6018091F00281FD04C072
:100E100061E082E00E949A0182E08093DE02E0EBD2
:100E2000F0E0E491E093DF02ECE9F0E0E491F0E03F
:100E3000EE0FFF1FEA57FF4F859194919093E102C7
:100E40008093E0020895789484B5826084BD84B56F
:100E5000816084BD85B5826085BD85B5816085BDB5
:100E600080916E00816080936E001092810080916D
:100E700081008260809381008091810081608093F5
:100E80008100809180008160809380008091B1001A
:100E900084608093B1008091B00081608093B00045
:100EA00080917A00846080937A0080917A008260D9
:100EB00080937A0080917A00816080937A0080919B
:100EC0007A00806880937A001092C100E091450218
:100ED000F091460282E08083E0914102F09142026B
:100EE0001082E0914302F09144028FEC80831092D3
:100EF0004D02E0914902F0914A0286E08083E09140
:100F00004702F0914802808180618083E09147022E
:100F1000F0914802808188608083E0914702F091DF
:100F20004802808180688083E0914702F091480206
:100F300080818F7D80831092ED021092EC021092DE
:100F4000EB021092EA021092E9021092E8028DE997
:100F500091E09093EF028093EE029091DE02963141
:100F600008F047C02DEB30E03093E9022093E8020F
:100F70002BE931E03093EB022093EA022CE231E0DE
:100F80003093ED022093EC022091680084E09830C9
:100F900048F031E09E3008F430E081E001C0880F75
:100FA0003A95EAF7822B809368002DE630E098307E
:100FB00050F02BE630E09E3030F02CE630E09631F9
:100FC00010F030E020E03093E6022093E502292F74
:100FD00030E0983008F040C181E001C0880F9A9558
:100FE000EAF78093E7028091EE029091EF02019779
:100FF000F1F78091EC029091ED02892B49F1E0919B
:101000002802F091290282E0E23DF80709F13097C9
:1010100039F0A389B4899C918589809589238C9323
:101020008091F0028E7F8093F0021092270210923E
:10103000260282ED92E09093290280932802E091AB
:10104000E502F091E60280819091E702892B80838E
:1010500061E088E00E94E60161E087E00E94E6012D
:10106000C1E3D2E080E0E82E80E0F82E61E087E086
:101070000E949A0161E088E00E949A016AE070E0B3
:1010800080E090E00E943C0248E050E060E071E0C7
:1010900082ED92E00E948D000897F9F460E087E00D
:1010A0000E949A0160E088E00E949A010AE212E040
:1010B00082ED92E00E944903F80181938F01682F2D
:1010C00070E090E080E040E10E947A03C017D10711
:1010D00079F783E491E00E946D03D0902E026AEFCD
:1010E00070E080E090E00E943C0261E087E00E94B6
:1010F0009A0161E088E00E949A016AE070E080E075
:1011000090E00E943C0248E050E068E071E082ED2F
:1011100092E00E948D000897F9F460E087E00E9459
:101120009A0160E088E00E949A010AE212E082EDF2
:1011300092E00E944903F80181938F01682F70E0CB
:1011400090E080E040E10E947A03C017D10779F770
:1011500083E491E00E946D03C0902E026AEF70E07C
:1011600080E090E00E943C0261E087E00E949A01EA
:1011700061E088E00E949A016AE070E080E090E01F
:101180000E943C0248E050E060E171E082ED92E0B4
:101190000E948D000897F9F460E087E00E949A01B0
:1011A00060E088E00E949A010AE212E082ED92E09B
:1011B0000E944903F80181938F01682F70E090E04D
:1011C00080E040E10E947A03C017D10779F783E4F9
:1011D00091E00E946D0310912E026AEF70E080E0B2
:1011E00090E00E943C0286E491E00E946D036D2D28
:1011F00070E090E080E04AE00E947A030E94BE0323
:1012000081E591E00E946D036C2D70E090E080E03C
:101210004AE00E947A030E94BE038FE591E00E949B
:101220006D03612F70E090E080E04AE00E947A0355
:101230000E94BE0360ED77E080E090E00E943C02F7
:10124000E114F10409F412CF0E94F700882309F495
:101250000DCF0E9400000ACF9E3040F42850310983
:1012600081E001C0880F2A95EAF7BBCE2E503109E4
:10127000F7CF8EE291E09093D3028093D2028091D7
:10128000280290912902825D924071F4E091E5027A
:10129000F091E60290818091E70280958923808316
:1012A00010922902109228020895A1E21A2EAA1B78
:1012B000BB1BFD010DC0AA1FBB1FEE1FFF1FA21706
:1012C000B307E407F50720F0A21BB30BE40BF50B03
:1012D000661F771F881F991F1A9469F7609570958C
:1012E000809590959B01AC01BD01CF010895EE0F53
:1012F000FF1F0590F491E02D099410E0C2E6D0E0C4
:1013000004C0FE010E9477092196C336D107C9F7B0
:04131000F894FFCF7F
:101314000103001E0001E40C0103001F0001B5CC11
:1013240001030020000185C0000000002D018D0094
:10133400BA007A01EB00C900DD0000000000D7020A
:101344008D006A03950233034903BF02206D672FA2
:101354006B67000D0A004E6974726F67656E3A2000
:101364000050686F7370686F726F75733A20005025
:0C1374006F7461737369756D3A2000009E
:00000001FF
